{
    "contractName": "Prescription",
    "abi": [
        {
            "inputs": [
                {
                    "internalType": "address",
                    "name": "_patientAddress",
                    "type": "address"
                },
                {
                    "internalType": "uint32",
                    "name": "_ndc",
                    "type": "uint32"
                },
                {
                    "internalType": "uint256",
                    "name": "_quantity",
                    "type": "uint256"
                },
                {
                    "internalType": "uint256",
                    "name": "_refills",
                    "type": "uint256"
                }
            ],
            "stateMutability": "nonpayable",
            "type": "constructor"
        },
        {
            "inputs": [
                {
                    "internalType": "address",
                    "name": "newPermission",
                    "type": "address"
                }
            ],
            "name": "addPermission",
            "outputs": [],
            "stateMutability": "nonpayable",
            "type": "function"
        },
        {
            "inputs": [
                {
                    "internalType": "address",
                    "name": "newPermission",
                    "type": "address"
                }
            ],
            "name": "removePermission",
            "outputs": [],
            "stateMutability": "nonpayable",
            "type": "function"
        },
        {
            "inputs": [
                {
                    "internalType": "uint256",
                    "name": "refillCount",
                    "type": "uint256"
                }
            ],
            "name": "setRefills",
            "outputs": [],
            "stateMutability": "nonpayable",
            "type": "function"
        },
        {
            "inputs": [],
            "name": "viewScript",
            "outputs": [
                {
                    "components": [
                        {
                            "internalType": "address",
                            "name": "prescriberAddress",
                            "type": "address"
                        },
                        {
                            "internalType": "uint32",
                            "name": "ndc",
                            "type": "uint32"
                        },
                        {
                            "internalType": "uint256",
                            "name": "quantity",
                            "type": "uint256"
                        },
                        {
                            "internalType": "uint256",
                            "name": "refills",
                            "type": "uint256"
                        }
                    ],
                    "internalType": "struct PrescriptionInfo",
                    "name": "",
                    "type": "tuple"
                }
            ],
            "stateMutability": "view",
            "type": "function"
        }
    ],
    "bytecode": "608060405234801561001057600080fd5b506040516103de3803806103de83398101604081905261002f9161008d565b600080546001600160c01b0319163363ffffffff60a01b191617600160a01b63ffffffff959095169490940293909317909255600155600255600380546001600160a01b0319166001600160a01b03929092169190911790556100ea565b600080600080608085870312156100a357600080fd5b84516001600160a01b03811681146100ba57600080fd5b602086015190945063ffffffff811681146100d457600080fd5b6040860151606090960151949790965092505050565b6102e5806100f96000396000f3fe608060405234801561001057600080fd5b506004361061004c5760003560e01c80630c5bd5b0146100515780634d0a5dbd146100a4578063984519fe146100b9578063e074bb47146100cc575b600080fd5b6100596100df565b60405161009b919081516001600160a01b0316815260208083015163ffffffff1690820152604080830151908201526060918201519181019190915260800190565b60405180910390f35b6100b76100b2366004610266565b61018f565b005b6100b76100c7366004610296565b6101ec565b6100b76100da366004610266565b610208565b6040805160808101825260008082526020820181905291810182905260608101919091526003546001600160a01b031633148061013057503360009081526004602052604090205460ff1615156001145b8061014557506000546001600160a01b031633145b61014e57600080fd5b50604080516080810182526000546001600160a01b0381168252600160a01b900463ffffffff16602082015260015491810191909152600254606082015290565b6003546001600160a01b031633146101a657600080fd5b6001600160a01b03811660009081526004602052604090205460ff1661004c576001600160a01b0381166000908152600460205260409020805460ff1916600117905550565b6000546001600160a01b0316331461020357600080fd5b600255565b6003546001600160a01b0316331461021f57600080fd5b6001600160a01b03811660009081526004602052604090205460ff1615156001141561004c576001600160a01b03166000908152600460205260409020805460ff19169055565b60006020828403121561027857600080fd5b81356001600160a01b038116811461028f57600080fd5b9392505050565b6000602082840312156102a857600080fd5b503591905056fea264697066735822122001541e1f91bcb40b50b4ce7b3f12a43e68cd05564e766d5939495ca81a6d02e064736f6c63430008060033",
    "sourcePath": "e:/Google Drive/Boise State REU/Code/VigilRx/contracts/Prescription.sol",
    "compiler": {
        "name": "solc",
        "version": "0.8.6+commit.11564f7e"
    },
    "functionHashes": {
        "addPermission(address)": "4d0a5dbd",
        "removePermission(address)": "e074bb47",
        "setRefills(uint256)": "984519fe",
        "viewScript()": "0c5bd5b0"
    },
    "gasEstimates": {
        "creation": {
            "codeDepositCost": "148200",
            "executionCost": "infinite",
            "totalCost": "infinite"
        },
        "external": {
            "addPermission(address)": "28929",
            "removePermission(address)": "28977",
            "setRefills(uint256)": "24486",
            "viewScript()": "13357"
        }
    }
}