{
    "contractName": "Prescriber",
    "abi": [
        {
            "inputs": [
                {
                    "internalType": "address",
                    "name": "contractOwner",
                    "type": "address"
                },
                {
                    "internalType": "uint32",
                    "name": "newNpi",
                    "type": "uint32"
                }
            ],
            "stateMutability": "nonpayable",
            "type": "constructor"
        },
        {
            "inputs": [
                {
                    "internalType": "bytes32",
                    "name": "key",
                    "type": "bytes32"
                },
                {
                    "internalType": "address",
                    "name": "pAddress",
                    "type": "address"
                }
            ],
            "name": "addPatient",
            "outputs": [],
            "stateMutability": "nonpayable",
            "type": "function"
        },
        {
            "inputs": [
                {
                    "internalType": "address",
                    "name": "_patientAddress",
                    "type": "address"
                },
                {
                    "internalType": "uint32",
                    "name": "_ndc",
                    "type": "uint32"
                },
                {
                    "internalType": "uint256",
                    "name": "_quantity",
                    "type": "uint256"
                },
                {
                    "internalType": "uint256",
                    "name": "_refills",
                    "type": "uint256"
                }
            ],
            "name": "newPrescription",
            "outputs": [
                {
                    "internalType": "address",
                    "name": "",
                    "type": "address"
                }
            ],
            "stateMutability": "nonpayable",
            "type": "function"
        },
        {
            "inputs": [],
            "name": "npi",
            "outputs": [
                {
                    "internalType": "uint32",
                    "name": "",
                    "type": "uint32"
                }
            ],
            "stateMutability": "view",
            "type": "function"
        },
        {
            "inputs": [
                {
                    "internalType": "bytes32",
                    "name": "oldKey",
                    "type": "bytes32"
                },
                {
                    "internalType": "bytes32",
                    "name": "newKey",
                    "type": "bytes32"
                },
                {
                    "internalType": "address",
                    "name": "pAddress",
                    "type": "address"
                }
            ],
            "name": "rekeyPatient",
            "outputs": [],
            "stateMutability": "nonpayable",
            "type": "function"
        },
        {
            "inputs": [
                {
                    "internalType": "address",
                    "name": "rxAddress",
                    "type": "address"
                },
                {
                    "internalType": "uint256",
                    "name": "refillCount",
                    "type": "uint256"
                }
            ],
            "name": "setRefills",
            "outputs": [],
            "stateMutability": "nonpayable",
            "type": "function"
        },
        {
            "inputs": [
                {
                    "internalType": "bytes32",
                    "name": "_patientKey",
                    "type": "bytes32"
                }
            ],
            "name": "viewHistory",
            "outputs": [
                {
                    "internalType": "address[]",
                    "name": "",
                    "type": "address[]"
                }
            ],
            "stateMutability": "view",
            "type": "function"
        },
        {
            "inputs": [
                {
                    "internalType": "address",
                    "name": "rxAddress",
                    "type": "address"
                }
            ],
            "name": "viewRx",
            "outputs": [
                {
                    "components": [
                        {
                            "internalType": "address",
                            "name": "prescriberAddress",
                            "type": "address"
                        },
                        {
                            "internalType": "uint32",
                            "name": "ndc",
                            "type": "uint32"
                        },
                        {
                            "internalType": "uint256",
                            "name": "quantity",
                            "type": "uint256"
                        },
                        {
                            "internalType": "uint256",
                            "name": "refills",
                            "type": "uint256"
                        }
                    ],
                    "internalType": "struct PrescriptionInfo",
                    "name": "",
                    "type": "tuple"
                }
            ],
            "stateMutability": "nonpayable",
            "type": "function"
        }
    ],
    "bytecode": "608060405234801561001057600080fd5b50604051610c29380380610c2983398101604081905261002f91610064565b6000805463ffffffff909216600160a01b026001600160c01b03199092166001600160a01b03909316929092171790556100b3565b6000806040838503121561007757600080fd5b82516001600160a01b038116811461008e57600080fd5b602084015190925063ffffffff811681146100a857600080fd5b809150509250929050565b610b67806100c26000396000f3fe608060405234801561001057600080fd5b506004361061007d5760003560e01c8063b06d169f1161005b578063b06d169f14610115578063b724663914610128578063e936a48b14610153578063ea438af71461016657600080fd5b8063120fa623146100825780639db3026814610097578063abff89f3146100f5575b600080fd5b610095610090366004610565565b610192565b005b6100aa6100a5366004610541565b61021a565b6040516100ec919081516001600160a01b0316815260208083015163ffffffff1690820152604080830151908201526060918201519181019190915260800190565b60405180910390f35b6101086101033660046105d7565b6102e6565b6040516100ec91906106dc565b6100956101233660046105f0565b61037d565b61013b610136366004610591565b6103e4565b6040516001600160a01b0390911681526020016100ec565b610095610161366004610620565b61049b565b60005461017d90600160a01b900463ffffffff1681565b60405163ffffffff90911681526020016100ec565b6000546001600160a01b031633146101a957600080fd5b600380546001600160a01b0319166001600160a01b038416908117909155604051634c228cff60e11b81526004810183905263984519fe90602401600060405180830381600087803b1580156101fe57600080fd5b505af1158015610212573d6000803e3d6000fd5b505050505050565b6040805160808101825260008082526020820181905291810182905260608101919091526000546001600160a01b0316331461025557600080fd5b600380546001600160a01b0319166001600160a01b0384169081179091556040805162c5bd5b60e41b81529051630c5bd5b091600480820192608092909190829003018186803b1580156102a857600080fd5b505afa1580156102bc573d6000803e3d6000fd5b505050506040513d601f19601f820116820180604052508101906102e09190610659565b92915050565b6000546060906001600160a01b0316331461030057600080fd5b6000828152600160209081526040808320546001600160a01b0316835260028252918290208054835181840281018401909452808452909183018282801561037157602002820191906000526020600020905b81546001600160a01b03168152600190910190602001808311610353575b50505050509050919050565b6000546001600160a01b0316331461039457600080fd5b6000828152600160205260409020546001600160a01b0316156103b657600080fd5b60009182526001602052604090912080546001600160a01b0319166001600160a01b03909216919091179055565b600080546001600160a01b031633146103fc57600080fd5b60008585858560405161040e90610534565b6001600160a01b03909416845263ffffffff909216602084015260408301526060820152608001604051809103906000f080158015610451573d6000803e3d6000fd5b506001600160a01b0396871660009081526002602090815260408220805460018101825590835291200180546001600160a01b031916978216979097179096555093949350505050565b6000546001600160a01b031633146104b257600080fd5b6000838152600160205260409020546001600160a01b038281169116146104d857600080fd5b6000828152600160205260409020546001600160a01b0316156104fa57600080fd5b60009182526001602052604080832080546001600160a01b039093166001600160a01b031993841617905592825291902080549091169055565b6103de8061075483390190565b60006020828403121561055357600080fd5b813561055e81610729565b9392505050565b6000806040838503121561057857600080fd5b823561058381610729565b946020939093013593505050565b600080600080608085870312156105a757600080fd5b84356105b281610729565b935060208501356105c281610741565b93969395505050506040820135916060013590565b6000602082840312156105e957600080fd5b5035919050565b6000806040838503121561060357600080fd5b82359150602083013561061581610729565b809150509250929050565b60008060006060848603121561063557600080fd5b8335925060208401359150604084013561064e81610729565b809150509250925092565b60006080828403121561066b57600080fd5b6040516080810181811067ffffffffffffffff8211171561069c57634e487b7160e01b600052604160045260246000fd5b60405282516106aa81610729565b815260208301516106ba81610741565b6020820152604083810151908201526060928301519281019290925250919050565b6020808252825182820181905260009190848201906040850190845b8181101561071d5783516001600160a01b0316835292840192918401916001016106f8565b50909695505050505050565b6001600160a01b038116811461073e57600080fd5b50565b63ffffffff8116811461073e57600080fdfe608060405234801561001057600080fd5b506040516103de3803806103de83398101604081905261002f9161008d565b600080546001600160c01b0319163363ffffffff60a01b191617600160a01b63ffffffff959095169490940293909317909255600155600255600380546001600160a01b0319166001600160a01b03929092169190911790556100ea565b600080600080608085870312156100a357600080fd5b84516001600160a01b03811681146100ba57600080fd5b602086015190945063ffffffff811681146100d457600080fd5b6040860151606090960151949790965092505050565b6102e5806100f96000396000f3fe608060405234801561001057600080fd5b506004361061004c5760003560e01c80630c5bd5b0146100515780634d0a5dbd146100a4578063984519fe146100b9578063e074bb47146100cc575b600080fd5b6100596100df565b60405161009b919081516001600160a01b0316815260208083015163ffffffff1690820152604080830151908201526060918201519181019190915260800190565b60405180910390f35b6100b76100b2366004610266565b61018f565b005b6100b76100c7366004610296565b6101ec565b6100b76100da366004610266565b610208565b6040805160808101825260008082526020820181905291810182905260608101919091526003546001600160a01b031633148061013057503360009081526004602052604090205460ff1615156001145b8061014557506000546001600160a01b031633145b61014e57600080fd5b50604080516080810182526000546001600160a01b0381168252600160a01b900463ffffffff16602082015260015491810191909152600254606082015290565b6003546001600160a01b031633146101a657600080fd5b6001600160a01b03811660009081526004602052604090205460ff1661004c576001600160a01b0381166000908152600460205260409020805460ff1916600117905550565b6000546001600160a01b0316331461020357600080fd5b600255565b6003546001600160a01b0316331461021f57600080fd5b6001600160a01b03811660009081526004602052604090205460ff1615156001141561004c576001600160a01b03166000908152600460205260409020805460ff19169055565b60006020828403121561027857600080fd5b81356001600160a01b038116811461028f57600080fd5b9392505050565b6000602082840312156102a857600080fd5b503591905056fea264697066735822122001541e1f91bcb40b50b4ce7b3f12a43e68cd05564e766d5939495ca81a6d02e064736f6c63430008060033a264697066735822122032ff4d109eaff565ff29428c24c2284d7b6e162c04bf2975afa26b4414c8b86164736f6c63430008060033",
    "sourcePath": "e:/Google Drive/Boise State REU/Code/VigilRx/contracts/Prescriber.sol",
    "compiler": {
        "name": "solc",
        "version": "0.8.6+commit.11564f7e"
    },
    "functionHashes": {
        "addPatient(bytes32,address)": "b06d169f",
        "newPrescription(address,uint32,uint256,uint256)": "b7246639",
        "npi()": "ea438af7",
        "rekeyPatient(bytes32,bytes32,address)": "e936a48b",
        "setRefills(address,uint256)": "120fa623",
        "viewHistory(bytes32)": "abff89f3",
        "viewRx(address)": "9db30268"
    },
    "gasEstimates": {
        "creation": {
            "codeDepositCost": "583800",
            "executionCost": "infinite",
            "totalCost": "infinite"
        },
        "external": {
            "addPatient(bytes32,address)": "29006",
            "newPrescription(address,uint32,uint256,uint256)": "infinite",
            "npi()": "2396",
            "rekeyPatient(bytes32,bytes32,address)": "55555",
            "setRefills(address,uint256)": "infinite",
            "viewHistory(bytes32)": "infinite",
            "viewRx(address)": "infinite"
        }
    }
}