{
    "contractName": "Prescription",
    "abi": [
        {
            "inputs": [
                {
                    "internalType": "address",
                    "name": "_prescriberAddress",
                    "type": "address"
                },
                {
                    "internalType": "address",
                    "name": "_patientAddress",
                    "type": "address"
                },
                {
                    "internalType": "uint32",
                    "name": "_ndc",
                    "type": "uint32"
                },
                {
                    "internalType": "uint256",
                    "name": "_quantity",
                    "type": "uint256"
                },
                {
                    "internalType": "uint256",
                    "name": "_refills",
                    "type": "uint256"
                }
            ],
            "stateMutability": "nonpayable",
            "type": "constructor"
        },
        {
            "inputs": [
                {
                    "internalType": "address",
                    "name": "newPermission",
                    "type": "address"
                }
            ],
            "name": "addPermission",
            "outputs": [],
            "stateMutability": "nonpayable",
            "type": "function"
        },
        {
            "inputs": [
                {
                    "internalType": "address",
                    "name": "newPermission",
                    "type": "address"
                }
            ],
            "name": "removePermission",
            "outputs": [],
            "stateMutability": "nonpayable",
            "type": "function"
        },
        {
            "inputs": [
                {
                    "internalType": "uint256",
                    "name": "refillCount",
                    "type": "uint256"
                }
            ],
            "name": "setRefills",
            "outputs": [],
            "stateMutability": "nonpayable",
            "type": "function"
        },
        {
            "inputs": [],
            "name": "viewScript",
            "outputs": [
                {
                    "components": [
                        {
                            "internalType": "address",
                            "name": "prescriberAddress",
                            "type": "address"
                        },
                        {
                            "internalType": "uint32",
                            "name": "ndc",
                            "type": "uint32"
                        },
                        {
                            "internalType": "uint256",
                            "name": "quantity",
                            "type": "uint256"
                        },
                        {
                            "internalType": "uint256",
                            "name": "refills",
                            "type": "uint256"
                        }
                    ],
                    "internalType": "struct Prescription.PrescriptionInfo",
                    "name": "",
                    "type": "tuple"
                }
            ],
            "stateMutability": "view",
            "type": "function"
        }
    ],
    "bytecode": "608060405234801561001057600080fd5b506040516103ea3803806103ea83398101604081905261002f916100aa565b600080546001600160c01b0319163363ffffffff60a01b191617600160a01b63ffffffff959095169490940293909317909255600155600255600380546001600160a01b0319166001600160a01b03929092169190911790555061010b565b80516001600160a01b03811681146100a557600080fd5b919050565b600080600080600060a086880312156100c257600080fd5b6100cb8661008e565b94506100d96020870161008e565b9350604086015163ffffffff811681146100f257600080fd5b6060870151608090970151959894975095949392505050565b6102d08061011a6000396000f3fe608060405234801561001057600080fd5b506004361061004c5760003560e01c80630c5bd5b0146100515780634d0a5dbd146100a4578063984519fe146100b9578063e074bb47146100cc575b600080fd5b6100596100df565b60405161009b919081516001600160a01b0316815260208083015163ffffffff1690820152604080830151908201526060918201519181019190915260800190565b60405180910390f35b6100b76100b2366004610251565b61017a565b005b6100b76100c7366004610281565b6101d7565b6100b76100da366004610251565b6101f3565b6040805160808101825260008082526020820181905291810182905260608101919091526003546001600160a01b031633148061013057503360009081526004602052604090205460ff1615156001145b61013957600080fd5b50604080516080810182526000546001600160a01b0381168252600160a01b900463ffffffff16602082015260015491810191909152600254606082015290565b6003546001600160a01b0316331461019157600080fd5b6001600160a01b03811660009081526004602052604090205460ff1661004c576001600160a01b0381166000908152600460205260409020805460ff1916600117905550565b6000546001600160a01b031633146101ee57600080fd5b600255565b6003546001600160a01b0316331461020a57600080fd5b6001600160a01b03811660009081526004602052604090205460ff1615156001141561004c576001600160a01b03166000908152600460205260409020805460ff19169055565b60006020828403121561026357600080fd5b81356001600160a01b038116811461027a57600080fd5b9392505050565b60006020828403121561029357600080fd5b503591905056fea2646970667358221220189cd03fbd2ef6db573e555a407e018a212eaf650c42282d48c6e365522b3e4c64736f6c63430008050033",
    "sourcePath": "e:/Google Drive/Boise State REU/Code/VigilRx/contracts/Prescription.sol",
    "compiler": {
        "name": "solc",
        "version": "0.8.5+commit.a4f2e591"
    },
    "functionHashes": {
        "addPermission(address)": "4d0a5dbd",
        "removePermission(address)": "e074bb47",
        "setRefills(uint256)": "984519fe",
        "viewScript()": "0c5bd5b0"
    },
    "gasEstimates": {
        "creation": {
            "codeDepositCost": "144000",
            "executionCost": "infinite",
            "totalCost": "infinite"
        },
        "external": {
            "addPermission(address)": "28929",
            "removePermission(address)": "28977",
            "setRefills(uint256)": "24486",
            "viewScript()": "11212"
        }
    }
}